:020000040800F2
:100000008807002021050008290200082B020008AB
:100010002F02000833020008370200080000000029
:100020000000000000000000000000003B0200088B
:100030003D020008000000003F02000841020008E5
:100040003B0500083B0500083B0500083B05000890
:100050003B0500083B0500083B0500083B05000880
:100060003B0500083B0500083B0500083B05000870
:100070003B0500083B0500083B0500083B05000860
:100080003B0500083B0500083B0500083B05000850
:100090003B0500083B0500083B0500083B05000840
:1000A0003B0500083B0500083B0500083B05000830
:1000B0003B0500083B0500083B0500083B05000820
:1000C0003B0500083B0500083B0500083B05000810
:1000D0003B0500088B130008051400083B050008C9
:1000E0003B0500083B0500083B0500083B050008F0
:1000F0003B0500083B0500083B0500083B050008E0
:100100003B0500083B0500083B0500083B050008CF
:100110003B0500083B0500083B0500083B050008BF
:100120003B0500083B0500083B0500083B050008AF
:1001300000F002F800F03AF80AA090E8000C8244BF
:100140008344AAF10107DA4501D100F02FF8AFF29C
:10015000090EBAE80F0013F0010F18BFFB1A43F0A5
:1001600001031847E423000004240000103A24BFD0
:1001700078C878C1FAD8520724BF30C830C144BF0C
:1001800004680C607047000000230024002500264E
:10019000103A28BF78C1FBD8520728BF30C148BFEA
:1001A0000B6070471FB51FBD10B510BD01F0C7FD36
:1001B0001146FFF7F7FF00F01CF801F0E5FD03B46E
:1001C000FFF7F2FF03BC01F02DF810B500F0BAFF05
:1001D00001F022F84FF4165001F033F84FF4E130FB
:1001E00001F07EF801F052F901F018FA01F0CCF9B3
:1001F00010BD10B5002406E0002001F070F904469F
:100200000A2000F0DCFF002CF6D0012C02D0022CDA
:1002100006D102E000F02FF903E000F030F900E031
:1002200000BF00BF002010BD704700BFFEE700BF49
:10023000FEE700BFFEE700BFFEE77047704770476C
:10024000704700000CB50020019000906C480068D9
:1002500040F480306A49086000BF6948006800F4D3
:10026000003000900198401C0190009818B9019846
:10027000B0F5A06FF1D16248006800F4003010B111
:100280000120009001E0002000900098012843D157
:100290005C48006840F010005A4908600846006851
:1002A00020F0030008600846006840F00200086083
:1002B00053484068524948600846406848600846CC
:1002C000406840F4806048600846406820F47C1034
:1002D00048600846406840F4E810486008460068F6
:1002E00040F08070086000BF4548006800F0007072
:1002F0000028F9D04248406820F003004049486097
:100300000846406840F00200486000BF3C48406832
:1003100000F00C000828F9D10CBD10B5FFF792FFD2
:1003200010BD10B53648006840F00100344908603F
:10033000084640683449084031494860084600682A
:10034000324908402E4908600846006820F48020A1
:1003500008600846406820F4FE0048604FF41F0023
:100360008860FFF7DAFF4FF000602949086010BD90
:1003700010B5002100200022214B5B6803F00C0126
:1003800021B1042906D0082928D107E0214B224CAD
:10039000236027E01F4B204C236023E0184B5B6851
:1003A00003F47010164B5B6803F48032022303EBF6
:1003B000904022B9194B4343174C23600DE0104B7A
:1003C0005B6803F4003323B1144B4343124C2360A6
:1003D00003E0104B4343104C236003E00D4B0E4CE5
:1003E000236000BF00BF064B5B68C3F303130C4CD4
:1003F000E15C094B1B68CB40074C236010BD00003B
:1004000000100240002002400000FFF8FFFFF6FE4F
:1004100008ED00E000127A000000002000093D0015
:100420000400002010B5002424E001F0C8F80446C0
:1004300034B1012C0AD0022C10D0032C19D115E0B4
:1004400000213448007801F044F912E0314909787C
:10045000C91CC8B2002101F01BFA0AE02D49097835
:10046000C91CC8B2002101F0FFFA02E001F01CF93A
:1004700010BD00BFD9E701E0FFF7D4FFFCE72DE98D
:10048000F041FFF7CFFF002408E022490978491C1A
:10049000C8B2002101F01DF9601CC4B2322CF4DB9B
:1004A0002BE001F0C9FB80460021404601F0CCFF63
:1004B00008D3404601F090FF06460022164B01F09B
:1004C00055FF01D201250BE0404601F085FF0646AD
:1004D0000022124B01F010FE01D2002500E00DE0D9
:1004E000002408E00B490978491CC8B2294601F0EC
:1004F000F0F8601CC4B21E2CF4DBD2E700BF41F25E
:10050000883000F05CFE042002490870FFF78AFF83
:10051000BDE8F0811400002000B065400010654087
:100520000948804709480047FEE7FEE7FEE7FEE787
:10053000FEE7FEE7FEE7FEE7FEE7FEE704480549C3
:10054000054A064B704700002303000831010008EC
:1005500088010020880700208803002088030020ED
:1005600031490143314A1160704770B500210023C1
:100570000F22C47804B32D4C246804F4E064C4F55D
:10058000E064210AC1F10403CA40447804FA03F18B
:100590008478144021430901254C0678A15504783C
:1005A00004F01F050124AC4005786D11AD0005F184
:1005B000E025C5F8004109E0047804F01F05012496
:1005C000AC401C4D0678761145F8264070BD1A4A9D
:1005D0000A400243154B1B1F1A60704739B1134A7A
:1005E000121D12680243114B1B1D1A6006E00F4AD0
:1005F000121D126882430D4B1B1D1A6070470428A0
:1006000008D14FF0E021096941F004014FF0E022E8
:10061000116107E04FF0E021096921F004014FF07A
:10062000E0221161704700000000FA050CED00E0C7
:1006300000E400E080E100E080FFFF1F10B5044609
:10064000CC48844208D10121042000F02DFB002178
:10065000042000F029FB46E0C748844208D101216C
:10066000082000F021FB0021082000F01DFB3AE0EB
:10067000C248844208D10121102000F015FB00215E
:10068000102000F011FB2EE0BD48844208D101216A
:10069000202000F009FB0021202000F005FB22E0D3
:1006A000B848844208D10121402000F0FDFA002121
:1006B000402000F0F9FA16E0B348844208D1012145
:1006C000802000F0F1FA0021802000F0EDFA0AE02D
:1006D000AE48844207D10121801500F0E5FA0021DF
:1006E000A01500F0E1FA10BD10B50121084600F098
:1006F000DBFA0021012000F0D7FA10BD2DE9F0410E
:10070000024600250026002000230024002791F83F
:1007100003C00CF00F0591F803C00CF0100CBCF1F5
:10072000000F03D091F802C04CEA050591F800C013
:10073000BCF1000F31D0146800202BE04FF0010C09
:100740000CFA00F3B1F800C00CEA03069E4220D177
:1007500083004FF00F0C0CFA03F7BC4305FA03FCBF
:100760004CEA040491F803C0BCF1280F06D14FF005
:10077000010C0CFA00FCC2F814C00AE091F803C0A6
:10078000BCF1480F05D14FF0010C0CFA00FCC2F887
:1007900010C0401C0828D1D31460B1F800C0BCF1CF
:1007A000FF0F34DD546800202EE000F1080C4FF0FC
:1007B000010808FA0CF3B1F800C00CEA03069E42E7
:1007C00021D183004FF00F0C0CFA03F7BC4305FA5C
:1007D00003FC4CEA040491F803C0BCF1280F05D1D6
:1007E00000F1080C08FA0CF8C2F8148091F803C064
:1007F000BCF1480F07D100F1080C4FF0010808FACE
:100800000CF8C2F81080401C0828CED35460BDE814
:10081000F0814FF6FF710180022181700421C170C7
:1008200070470246002093680B400BB1012000E0A6
:10083000002070470146886880B270470246002059
:10084000D3680B400BB1012000E000207047014647
:10085000C86880B2704701617047416170470AB152
:10086000016100E041617047C16070474FF4803220
:100870000A438261816182618269826970470246AE
:100880000020434B18684FF68073184040EA02106E
:1008900008433F4B186070473E49C8617047F0B548
:1008A0000A46002300240021002500F00046B6F18E
:1008B000004F02D1364EF16901E0354E7168C0F348
:1008C000034583B200F44016B6F5401F08D121F06D
:1008D00070612F4E766826F070662D4F7E6012E0B4
:1008E00000F48016B6F5801F06D1032606FA05F43B
:1008F000A14341F0706106E0460D360103FA06F6A9
:10090000B14341F0706122B1460D360103FA06F69B
:10091000314300F00046B6F1004F02D11C4EF161A8
:1009200001E01B4E7160F0BD30B500228B071C0F3B
:100930000F2303FA04F2164B08338C1053F82430BB
:100940009343134C08348D1044F8253023468C1003
:1009500053F824308C07240F00FA04F423430C4C82
:1009600008348D1044F8253030BD0A49DC31086068
:100970007047000000080140000C014000100140D9
:100980000014014000180140001C014000200140FB
:100990000000014000002042DF48006840F00100F4
:1009A000DD49086008464068DC490840DA4948608B
:1009B00008460068DA490840D749086008460068D8
:1009C00020F4802008600846406820F4FE0048605B
:1009D0004FF41F0088607047CF49096821F48031C7
:1009E000CD4A11601146096821F480211160B0F5EB
:1009F000803F03D0B0F5802F0ED106E0C6490968CC
:100A000041F48031C44A116007E0C349096841F4E8
:100A1000A021C14A116000E000BF00BF704710B5BF
:100A200001460022002300204A11012A02D1BA4CBB
:100A3000236806E0022A02D1B74C236A01E0B64CD3
:100A4000636A01F01F02012494401C400CB1012094
:100A500000E0002010BD38B50020009000240025E3
:100A600000BF3120FFF7DBFF05460098401C0090D7
:100A70000098B0F5A06F01D0002DF2D03120FFF723
:100A8000CEFF08B1012400E00024204638BD014615
:100A90000020A14A106820F0F80040EAC100106070
:100AA0007047A04908607047024600209A4B58687A
:100AB00020F47C1042EA01031843974B58607047BA
:100AC00098490866704701460020934A506820F014
:100AD00003000843506070478F48406800F00C00E6
:100AE0007047014600208C4A506820F0F00008430F
:100AF0005060704701460020874A506820F4E0604B
:100B000008435060704701460020834A506820F433
:100B1000605040EAC1005060704729B17E4A527A65
:100B200002437D4B5A7204E07B4A527A82437A4BED
:100B30005A7270477B49D8310860704701460020DF
:100B4000754A506820F440400843506070470021C7
:100B5000714A20321170704A82F82010012802D0A8
:100B600004280AD104E001216B4A2032117005E00B
:100B70000521694A2032117000E000BF00BF7047B4
:100B80006949086070476449096A0143624A116211
:100B90007047654944390860704730B5002100222C
:100BA000002400235C4D6D6805F00C0121B104297F
:100BB00005D0082923D105E05C4D056022E05B4D9E
:100BC00005601FE0544D6D6805F47012524D6D685C
:100BD00005F48034022505EB92421CB9544D55436F
:100BE00005600BE04C4D6D6805F400351DB1504DAE
:100BF0005543056002E04D4D5543056002E04B4D05
:100C0000056000BF00BF444D6D6805F0F0010909A3
:100C1000484D6B5C0568DD4045603F4D6D6805F4EF
:100C2000E061090A434D6B5C4568DD4085603A4DE3
:100C30006D6805F46051C90A3E4D6B5C4568DD4046
:100C4000C560354D6D6805F44041890B3A4D6B5CCC
:100C5000C568B5FBF3F5056130BD29B12E4A52696F
:100C600002432D4B5A6104E02B4A526982432A4BBE
:100C70005A61704729B1284A92690243264B9A610A
:100C800004E0254A92698243234B9A61704729B157
:100C9000214AD2690243204BDA6104E01E4AD2693C
:100CA00082431D4BDA61704729B11B4AD268024367
:100CB000194BDA6004E0184AD2688243164BDA60B6
:100CC000704729B1144A12690243134B1A6104E0B8
:100CD000114A12698243104B1A6170471249403918
:100CE000086070470F49C86470470B49C871704766
:100CF0000948406A40F080700749486270470146E1
:100D00000020054A92680A400AB1012000E0002054
:100D10007047014988727047001002400000FFF8D8
:100D2000FFFFF6FE000042428004424200127A00B9
:100D300000093D00150000202500002010B50446E4
:100D4000FB48844209D101218803FFF7ADFF002150
:100D50004FF48040FFF7A8FF32E0F648844209D103
:100D600001214804FFF7ADFF00214FF40030FFF7E9
:100D7000A8FF25E0F048844209D101218804FFF74B
:100D8000A0FF00214FF48020FFF79BFF18E0EB4805
:100D9000844209D10121C804FFF793FF00214FF4D9
:100DA0000020FFF78EFF0BE0E548844208D10121C7
:100DB0000805FFF786FF00214FF48010FFF781FF41
:100DC00010BD2DE9F04786B005460E460024A24628
:100DD00000BFA1460027B08900B100BF2F462C8A72
:100DE0004CF6FF700440F08804432C82AC894EF628
:100DF000F3100440B08831890843718908430443E3
:100E0000AC81AC8A4FF6FF400440B0890443AC8209
:100E100001A8FFF7C2FEC648874202D1DDF810A044
:100E200001E0DDF80CA0A88900F4004040B10AEB15
:100E3000CA0000EB0A1031684900B0FBF1F807E086
:100E40000AEBCA0000EB0A1031688900B0FBF1F828
:100E50006420B8FBF0F004012009642101FB108933
:100E6000A88900F4004040B1322000EBC900B0FB7B
:100E7000F1F000F00700044308E0322000EB091015
:100E80006421B0FBF1F000F00F0004432C8106B0A8
:100E9000BDE8F0874FF41651016000218180C180C8
:100EA00001810C21418100218181704710B50246EA
:100EB0000020108A4FF2FF0318400B884C88234310
:100EC0008C882343CC8823431843108210BD002113
:100ED000018041808180C180704721B1828942F4C4
:100EE0000052828104E082894DF6FF731A408281AC
:100EF0007047F0B50346002400260025002040F688
:100F00006A17B94200D100BF1846C1F3421401F07C
:100F10001F06012707FA06F5012C01D10C3004E069
:100F2000022C01D1103000E014301AB107682F43B1
:100F3000076002E00768AF430760F0BD1AB1838A1B
:100F40000B43838202E0838A8B4383827047028A49
:100F50004FF6F0731A400282028A0A4302827047F7
:100F600082894FF2FF731A40828182890A4382810B
:100F7000704721B1828942F00202828104E08289B5
:100F80004FF6FD731A4082817047028A4FF6DF7375
:100F90001A400282028A0A430282704721B1028A01
:100FA00042F48042028204E0028A4BF6FF731A4048
:100FB00002827047C1F30802828070470146888828
:100FC000C0F308007047818941F0010181817047B9
:100FD000028BD2B20283028B42EA01220283704763
:100FE000028B02F47F420283028B0A430283704722
:100FF00021B1828A42F02002828204E0828A4FF686
:10100000DF731A408282704721B1828A42F0100257
:10101000828204E0828A4FF6EF731A408282704720
:1010200021B1828A42F00802828204E0828A4FF66D
:10103000F7731A408282704721B1828942F40042DC
:10104000828103E08289C2F30E028281704721B15E
:10105000828A42F40062828204E0828A4FF2FF7345
:101060001A4082827047828A4FF6FB731A4082824E
:10107000828A0A438282704721B1828A42F0020248
:10108000828204E0828A4FF6FD731A4082827047A2
:1010900002460020B1F5007F00D100BF13880B404D
:1010A0000BB1012000E00020704701F40072B2F59E
:1010B000007F00D100BFCA430280704770B502466E
:1010C000002400230025002040F66A16B14200D11A
:1010D00000BFC1F3421501F01F03012606FA03F316
:1010E000012D02D19689334006E0022D02D1168AE5
:1010F000334001E0968A33400C12012606FA04F4CC
:101100001688344013B10CB1012000E0002070BDFE
:1011100010B50022002340F66A14A14200D100BF9E
:101120000A1201249440A3B2DC43048010BD0000E5
:10113000003801400044004000480040004C00409E
:101140000050004010B56FF00400FFF758FA2E4829
:1011500000682E49B0FBF1F02D4908700846007870
:1011600000EB4001C1EBC0104FF6FF7101EAC00077
:101170002849088010BD0146254A12784A434FF09D
:10118000E0235A6100229A611A46126942F0010274
:101190001A6100BF4FF0E022106900F001021AB19D
:1011A00000F48032002AF5D04FF0E022126922F0DC
:1011B00001024FF0E0231A6100229A617047014654
:1011C000144A12884A434FF0E0235A6100229A6180
:1011D0001A46126942F001021A6100BF4FF0E02284
:1011E000106900F001021AB100F48032002AF5D033
:1011F0004FF0E022126922F001024FF0E0231A6161
:1012000000229A61704700000000002000127A005E
:101210002A0000202C00002010B54FF4A060FFF73A
:101220009FF910BD014600BF704700BF8E4A12886B
:1012300002F04002002AF9D0C2B28B4B1B1D1A806B
:10124000704710B586B00446012144F20400FFF750
:1012500011FD8548FFF772FD4FF40070ADF81400E2
:1012600003208DF8160018208DF8170005A97F4877
:10127000FFF744FA4FF48060ADF8140004208DF8B5
:10128000170005A97948FFF739FA25208DF80000E5
:1012900003208DF801008DF8020001208DF8030075
:1012A0006846FFF762F901940020ADF80800ADF838
:1012B0000A00ADF80C00ADF810000C20ADF80E00DF
:1012C00001A96948FFF77DFD012240F225516648DA
:1012D000FFF70FFE01216448FFF7FFFD06B010BDC8
:1012E00010B586B0044601214804FFF7D0FC012167
:1012F0000520FFF7BFFC5E48FFF720FD0420ADF896
:10130000140003208DF8160018208DF8170005A989
:101310005648FFF7F3F90820ADF8140048208DF87F
:10132000170005A95148FFF7E9F926208DF80000BC
:1013300002208DF8010003208DF8020001208DF8B5
:1013400003006846FFF711F901940020ADF808008A
:10135000ADF80A00ADF80C00ADF810000C20ADF8A7
:101360000E0001A94248FFF72CFD012240F2255151
:101370003F48FFF7BEFD01213D48FFF7AEFD40218C
:101380003B48FFF792FE06B010BD10B540F2255164
:101390003548FFF793FE10B33348FFF70FFEC4B292
:1013A0003448008800F40040C8B93248008800F48E
:1013B000804060B10A2C03D000202E49088020E034
:1013C0002C48008840F400402A49088019E00D2C80
:1013D00006D12848008840F480402649088010E063
:1013E00024480088C0F30D0023490C54214800888C
:1013F000401C2049088008460088C72801DD0020DD
:10140000088010BD10B540F225511948FFF756FE6F
:1014100038B31748FFF7D2FD1849194A1278885493
:101420001748007820B908460078552800D010BD2C
:1014300013480078401C12490870084600780B28B1
:101440000FD110480D490A6802604A6842600A8953
:101450000281897A817200200949087001200A49B5
:10146000087000BFE3E700000038014000080140B9
:1014700000440040340000203C0000200F01002008
:1014800036000020040100203700002008B50121AB
:101490001420FFF7EFFB01213748FFF700FA4FF464
:1014A0000040ADF8000048208DF80300694633483D
:1014B000FFF724F92020ADF8000048208DF8030044
:1014C00069462F48FFF71AF90120ADF800002820DF
:1014D0008DF8030069462948FFF710F908BD10B5DB
:1014E000044614B10120274908702648007868B3E3
:1014F00020212348FFF795F958B14FF400411F48C8
:10150000FFF78FF928B101211C48FFF78AF901285C
:101510001CD10A20FFF753FE00201A490870202131
:101520001748FFF77EF908B9012010BD4FF40041BC
:101530001248FFF776F908B90220F6E701210F48B3
:10154000FFF76FF9012815D10320EEE720210C48A1
:10155000FFF767F901280DD1C1030848FFF761F9CA
:10156000012807D101210548FFF75BF910B90120D7
:10157000044908700020D8E700023000000801404C
:10158000001001403800002008B501210820FFF7B5
:1015900071FB4020ADF8000028208DF8030069465B
:1015A0001C48FFF7ABF88020ADF8000069461948E9
:1015B000FFF7A4F8C0211748FFF74FF908BD1648F8
:1015C0000068012804D01448001D006801281ED1BD
:1015D00011480068012805D10F48001D006808B9AE
:1015E000012070470C48006830B90B48001D0068A6
:1015F000012801D10220F4E707480068012806D13C
:101600000548001D0068012801D10320E9E70020FA
:10161000E7E70000000C01401881214208B50121D4
:101620001420FFF727FB10208DF8030003208DF80E
:1016300002004020ADF800006946FE48FFF75EF862
:101640008020ADF800006946FA48FFF757F84FF4DC
:101650008070ADF800006946F648FFF74FF84FF488
:101660000070ADF800006946F248FFF747F8102017
:10167000ADF800006946F048FFF740F82020ADF8CB
:1016800000006946EC48FFF739F84020ADF800004B
:101690006946E948FFF732F88020ADF80000694656
:1016A000E548FFF72BF808BD0020E4490860E4494D
:1016B000C1F89C01E14908310860091D0860E14951
:1016C0000860091D0860091D0860DF49C1F89C0118
:1016D000704770B505460C46002C6CD10120D949E5
:1016E00008600020D849C1F89401D6490831086043
:1016F0000120091D0860D14908600020091D08600B
:101700000120091D08600020CD49C1F8A401284628
:10171000FFF755FD0020CB4908600120091D086036
:101720000020091D08600120091D08600020C34930
:1017300008600120091D0860091D08600020C049DB
:10174000C1F8A4012846FFF73AFD0020BD49086012
:101750000120091D0860091D08600020091D08609E
:10176000B64908600120091D08600020091D0860B5
:101770000120B349C1F8A4012846FFF720FD01204C
:10178000B04908600020091D08600120091D08609B
:101790000020091D08600120A84908600020091DDB
:1017A0000860091D08600120A549C1F8A401284668
:1017B000FFF705FD6BE00120A24908600020A24967
:1017C000C1F8940101209F49083108600020091DDB
:1017D00008600120994908600020091D0860091D62
:1017E000086001209649C1F8A4012846FFF7E7FCEC
:1017F0000020944908600120091D0860091D086047
:101800000020091D08608D4908600120091D08603D
:101810000020091D086001208949C1F8A40128465B
:10182000FFF7CDFC0020874908600120091D0860F2
:101830000020091D08600120091D086000207F4963
:1018400008600120091D0860091D086000207C490E
:10185000C1F8A4012846FFF7B2FC012079490860CD
:101860000020091D0860091D08600120091D08608D
:10187000724908600020091D08600120091D0860E8
:1018800000206F49C1F8A4012846FFF798FC70BDFD
:1018900070B505460C46002C6CD1012069490860E2
:1018A00000206949C1F894010120664908310860A7
:1018B0000020091D08600120604908600020091D02
:1018C00008600120091D086000205D49C1F8A401DD
:1018D0002846FFF774FC00205A4908600120091DC2
:1018E0000860091D08600020091D08605349086050
:1018F0000120091D0860091D086000205049C1F839
:10190000A4012846FFF75BFC00204E490860012037
:10191000091D08600020091D08600120091D0860DC
:101920000020464908600120091D08600020091DAB
:10193000086001204249C1F8A4012846FFF73FFC96
:101940000120404908600020091D0860091D086049
:101950000120091D0860394908600020091D086040
:10196000091D086001203649C1F8A4012846FFF787
:1019700026FC78E001203349086000203249C1F894
:1019800094013049083108600120091D08602B4985
:1019900008600020091D0860091D08600120284911
:1019A000C1F8A4012846FFF70AFC00202549086079
:1019B0000120091D08600020091D08600120091D83
:1019C000086000201D4908600120091D08600020F2
:1019D000091D086001201A49C1F8A4012846FFF733
:1019E000EEFB0020174908600120091D0860091D51
:1019F00008600020091D0860104908600120091DC9
:101A00000860091D086000200D49C1F8A40128469E
:101A1000FFF7D5FB01200B4908600020091D086075
:101A20000120091D08600020091D086001200349EC
:101A300008600BE0001001400008014098012242BC
:101A40000000224290012142000021420020091D95
:101A500008600120091D086000207349C1F8A40135
:101A60002846FFF7ACFB70BD70B505460C46002C50
:101A70006CD101206D49086000206B49C1F89C01C0
:101A80006A49083108600120091D0860684908603A
:101A90000020091D0860091D086001206549C1F882
:101AA0009C012846FFF78BFB00206049086001205D
:101AB000091D08600020091D08600120091D08603B
:101AC00000205B4908600120091D08600020091DF5
:101AD000086001205749C1F89C012846FFF76FFBB9
:101AE0000020524908600120091D0860091D086096
:101AF0000020091D08604E4908600120091D08608A
:101B0000091D086000204B49C1F89C012846FFF7D9
:101B100056FB0120454908600020091D086001208E
:101B2000091D08600020091D086001204049086067
:101B30000020091D08600120091D086000203D49A2
:101B4000C1F89C012846FFF73AFB6BE001203749BA
:101B5000086000203449C1F89C0101203349083154
:101B600008600020091D086001203149086000203C
:101B7000091D08600120091D086000202D49C1F8D9
:101B80009C012846FFF71BFB002028490860012024
:101B9000091D0860091D08600020091D086024490E
:101BA00008600120091D0860091D08600020214906
:101BB000C1F89C012846FFF702FB00201B49086082
:101BC0000120091D08600020091D08600120091D71
:101BD00008600020164908600120091D08600020E7
:101BE000091D086001201349C1F89C012846FFF730
:101BF000E6FA01200D4908600020091D0860091D52
:101C000008600120091D0860094908600020091DBD
:101C10000860091D086001200649C1F89C0128469A
:101C2000FFF7CDFA70BD0000000022429801224269
:101C300090012142000021422DE9FE4338480078FE
:101C400000286BD0374801680091416801910189F3
:101C5000ADF80810807A8DF80A000020304908702D
:101C600030480078552859D12E484078512804D062
:101C7000522803D053284BD101E04AE049E09DF8B7
:101C800002109DF8032041EA022108B200F01CFA7C
:101C900080460022244B00F0BFF806460022234B6A
:101CA00000F066FA044600F079F8214908609DF8D2
:101CB00004109DF8052041EA022108B200F004FA60
:101CC00006460022184B00F0A7F804460022174BE6
:101CD00000F04EFA804600F061F8154948609DF822
:101CE00006109DF8072041EA022108B200F0ECF945
:101CF000064600220C4B00F08FF8044600220B4BE6
:101D000000F036FA804600F049F80949886000E0A2
:101D100000BF00BF06480068BDE8FE830020FBE767
:101D200037000020040100200000E04000806640F1
:101D30001C01002070477047704770477047754618
:101D400000F028F8AE4605006946534620F007002B
:101D5000854618B020B5FEF7F1FBBDE820404FF0F6
:101D600000064FF000074FF000084FF0000B21F085
:101D70000701AC46ACE8C009ACE8C009ACE8C00952
:101D8000ACE8C0098D4670470446AFF3008020469A
:101D9000FEF715FA004870472801002021F00042A4
:101DA000A2F16052B2F5801F01F0004328BFD2F1CA
:101DB0007F6C0BD95FEA001C43EAC20242EB507011
:101DC00018BF704728BF20F001007047B2F5801F90
:101DD000BCBF184670474FEA410C1CF5001F02D2E9
:101DE000084600F0ABBB70B500F06CFA000000894B
:101DF000FFF7F6BF4FF00040A0F580007047491094
:101E000058BFC1F140415B1058BFC3F140438B4202
:101E1000EFF30080704700002DE9C04130B4DFF8D7
:101E2000A0C23CEA111418BF3CEA131400F0EC8085
:101E300081EA03051CEA111444EAD57418BF1CEAB0
:101E4000131500F0C780A4EB05044FF0004545EAE8
:101E5000C12145EAC32341EA505143EA525304F1F8
:101E60007F74994204F500344FEAC0204FEAC22241
:101E700008BF904200F09C804FEA13650FF24016B5
:101E8000765D4FEA134506FB05F7C7F1807706FB41
:101E900007F74FEAD737A7FB03687642C8F58038C3
:101EA000A7FB06CE38BFA8F1010807FB08E64FF0F4
:101EB000000EA6FB028CE6FB03CEDCF1000CCEF19B
:101EC000004E38BFAEF1010EA6FB0C584FF00007D4
:101ED0004FF00005E6FB0E87A1FB08C6A0FB07CE6E
:101EE00016EB0E0645F10005E1FB076515F1E04E26
:101EF0007EBFA4F580345FEA46066D4116F1800787
:101F000045F100054FEA17274FEA066647EA0567DD
:101F1000A6F1DE46B6F1805F4FEA15251FD9384697
:101F200024F0010C05EBC471BCF1FE6F01EB0C1148
:101F300002D8F0BCBDE8008124425CBF01F5801EE0
:101F40009EEAC47F02D4F0BCBDE80081244238D4AC
:101F5000F0BCA1F1C041BDE8004100F001BA4FEA78
:101F6000D22242EA43524FEAD323A7FB02864FEA2A
:101F7000D02040EA415007FB03661EEA0E0F4FEAED
:101F8000D12105FB026658BFA6EB0056B6EB005602
:101F90004FEA520E4EEAC37E18EB0E0E56EB530E6E
:101FA000BDD518EB02085E417F1C55F10005B6E770
:101FB0004FF480154FF000074FF000064FF0000877
:101FC000ADE7F0BC4FF0000001F1C04101F000416D
:101FD000BDE8008111EA0C1F0CEA131500D00CE0DB
:101FE00013EA0C1F00F025804FF00000F0BC81EADE
:101FF000030101F00041BDE80081F0BC81EA03016A
:10200000BDE8004100F0ACB9F0BCBDE8004170B5DE
:1020100000F058F9097EFC3E00F007B881EA0301A0
:102020004FF0000001F00041704781EA030100F029
:1020300097B9F0BC4FF000002249BDE8004170475D
:10204000FFFDFBF9F7F5F4F2F0EEEDEBE9E8E6E47D
:10205000E3E1E0DEDDDBDAD8D7D5D4D3D1D0CFCD04
:10206000CCCBCAC8C7C6C5C4C2C1C0BFBEBDBCBB3D
:10207000BAB9B8B7B6B5B4B3B2B1B0AFAEADACAB38
:10208000AAA9A8A8A7A6A5A4A3A3A2A1A09F9F9E12
:102090009D9C9C9B9A9999989797969595949393C4
:1020A000929191908F8F8E8E8D8C8C8B8B8A89895B
:1020B00088888787868585848483838282818180DE
:1020C0000000FF070000F87F10F0004248BF4042C8
:1020D000B0FA80F310FA03F10AD0C3F11D0303F53F
:1020E00080634FEA415002EB035202EBD12170476B
:1020F0004FF000007047000051EA030C17D41CF5A4
:10210000801F58BFBCF5801F00F10680994218BFA0
:10211000704708BF9042704707D711F5801F58BF1E
:1021200013F5801F19D499427047894270471CF5F6
:10213000801F08D5BCF5801FF7D58B4218BF7047AC
:1021400008BF824270474FF4001C1CEB410F38BFA0
:102150001CEB430F01D28B42704770B500F0B2F810
:10216000922449004FF000514FF08053FFF747BED3
:10217000DFF848C170B51CEA111E1EBF1CEA13151A
:102180009EEA0C0F95EA0C0F00F06F8081EA0304C1
:1021900023EA4C134EEAD47E21EA4C1141F480111B
:1021A00043F48013AE44A1FB024CA0FB0365AEF1E7
:1021B0007F7E361955EB0C05A1FB034C4CF1000357
:1021C000A0FB021C16EB0C06654153F1000309420B
:1021D00018BF46F0010613F4007F0BD14FEA03311C
:1021E0004FEA0530340341EA155140EA16506FF0CA
:1021F00003020AE04FEAC3214FEAC520F40241EA94
:10220000555140EA56506FF0020202EB2E4201EBAC
:10221000025585EACE710AD05FEA440C18BF24F05B
:10222000004450F1000041F1000120EAD47040F276
:10223000FE7C624500D270BDA84214BF4FF08044BE
:102240004FF04044002E08BF0024BEF1806FA8BFAD
:10225000A1F1C041BDE8704080F282804FF00000E3
:1022600001F1C04101F0004170479EEA0C0F0CEAF9
:10227000131518BF95EA0C0F06D04FF0000081EA45
:10228000030E0EF0004170BD00F01CF88900013E05
:1022900000F007B800F009B84FEA430C5FEA5C5C55
:1022A00008D081EA030100F05BB84FEA410C5FEA15
:1022B0005C5CF6D14FF00000014970470000FF0759
:1022C0000000F87F0EF1020E2EF0030E5EF8046B94
:1022D000364205D4012A43EB030515F5001F12D839
:1022E000012841EB010C1CF5001F0CD80ED14FEA60
:1022F000D17C15F5001F0CEB4C0C0CF1020C08BF47
:102300004CEBD37C04E04FF0080C01E04FEAD37CA7
:102310000CEB4C0526FA05F606F00706B6F1040CA0
:1023200006D20EEB860CBDE870404CF0010C604705
:10233000DFE80CF0090B02024FF000414FF0000003
:10234000A1F5002170BD19461046012851EB01048A
:1023500018BFD4F5001484BF002001F0004170BD07
:102360000808A0F500114FEA3101704753EA010C4B
:1023700017D41CF5801F58BFBCF5801F00F10680E4
:102380008B4218BF704708BF8242704707D713F5CA
:10239000801F58BF11F5801F19D48B4270479B4294
:1023A00070471CF5801F08D5BCF5801FF7D59942F2
:1023B00018BF704708BF904270474FF4001C1CEBD9
:1023C000430F38BF1CEB410F01D2994270470FB445
:1023D0000CBC03BCFFF7C1BE43004FEAD30C4FEA6D
:1023E0003C0C43401FBF40070CF1605113F0FE4FFF
:1023F00070471CF0006F03D100200CF000417047C3
:102400000CF0004343EA507010B540EACC0000F0F5
:102410004FF800BF000000924FEA0001FFF7A0BF95
:102420004FF000414FF00000A1F50021704740102F
:1024300058BFC0F14040491058BFC1F140418142EE
:10244000EFF300807047000050EA010C00F11380A8
:102450001CF5000F58BFBCF5000F01D4884270472F
:1024600007D710F5000F58BF11F5000F15D488429B
:102470007047894270471CF5000F04D5BCF5000F6A
:10248000F7D5814270474FF0807C1CEB400F38BF7E
:102490001CEB410F01D28142704710B500F008F8E3
:1024A000922449004FF000504FF08051FFF7BFBF1A
:1024B0000EF1020E2EF0030E5EF8044B244204D4FB
:1024C0004FEA4102B2F17F4F11D84FEA4003B3F116
:1024D0007F4F0CD80ED14FEAD07CB2F17F4F0CEB7E
:1024E0004C0C0CF1020C08BF4CEBD17C04E04FF01B
:1024F000080C01E04FEAD17C0CEB4C0324FA03F406
:1025000004F00704B4F1040C06D20EEB840CBDE811
:1025100010404CF0010C6047DFE80CF007080202A5
:102520004FF00040A0F5800010BD0846420018BFE3
:10253000D2F1807288BF00F0004010BDFF2141EA57
:10254000D050C0057047000068250008000000203A
:102550003C0000006C010008A42500083C0000209D
:102560004C0700008801000800A24A040000000097
:10257000000000000102030406070809060000002D
:10258000000102030401020304060708090204060D
:102590000800000000000000000000000000000033
:0425A0000100000036
:0400000508000131BD
:00000001FF
